:10000000E82A002079240000D50500009D050000A5
:100010009D0500009D0500009D0500009D05000058
:100020000000000000000000000000009D0500002E
:100030009D050000000000009D0500000506000071
:10004000611C0000BD200000150600002106000014
:1000500000000000000000000000000000000000A0
:100060000000000000000000000000000000000090
:100070000000000000000000000000000000000080
:100080000000000000000000000000000000000070
:10040000FFFFFFFFDFCEFFFFFCFFFF00FFFFFF004E
:10041000FCFFFF00FFFFFF00FCFFFF00FFFFFF00EE
:10042000FCFF0F20FFFF0F20FCFF7F40FFFF7F40FE
:10043000FCFF0D40FFFF0D40FFFFFFFFFFFFFFFF31
:10044000FFFFFFFFFFFFFFFFFFFFFFFFFFFFFFFFBC
:10045000FFFFFFFFFFFFFFFFFFFFFFFFFFFFFFFFAC
:10046000FFFFFFFFFFFFFFFFFFFFFFFFFFFFFFFF9C
:10047000FFFFFFFFFFFFFFFFFFFFFFFFFFFFFFFF8C
:10048000FFFFFFFFFFFFFFFFFFFFFFFFFFFFFFFF7C
:10049000FFFFFFFFFFFFFFFFFFFFFFFFFFFFFFFF6C
:1004A000FFFFFFFFFFFFFFFFFFFFFFFFFFFFFFFF5C
:1004B000FFFFFFFFFFFFFFFFFFFFFFFFFFFFFFFF4C
:1004C000FFFFFFFFFFFFFFFFFFFFFFFFFFFFFFFF3C
:1004D000FFFFFFFFFFFFFFFFFFFFFFFFFFFFFFFF2C
:1004E000FFFFFFFFFFFFFFFFFFFFFFFFFFFFFFFF1C
:1004F000FFFFFFFFFFFFFFFFFFFFFFFFFFFFFFFF0C
:100500000A4B53F8300011F07F03CAB20BD00849F0
:10051000D20901EB0211194491F878301BB137333D
:1005200000EB430070476030704700BFB4340000F8
:10053000E0050020014B01221A60704700E100E055
:10054000044B0122C3F88020BFF34F8FBFF36F8F9E
:10055000704700BF00E100E010B50446FFF7D0FF90
:10056000014670B12046FFF7EBFF0B8803F0030351
:1005700043F002030B8002230B80BDE81040FFF71D
:10058000D9BF10BD044AB2F8CC309BB243F080030F
:10059000A2F8CC30704700BF0000094000BE704791
:1005A000064B93F826101A6A054B53F82130C2F314
:1005B0000262D340034A1360704700BF00E001406D
:1005C000AC050020C0050020A0F101000028FBD1EF
:1005D0007047FFFF034AB2F840319BB2A2F83031B6
:1005E000704700BF00600040C030054B53F820202A
:1005F0006FF3104243F8202053F82030704700BFBB
:1006000000600040024A136801331360704700BF66
:10061000E4120020EFF30380103840B2FFF7E4BF8C
:10062000FFF7F8BF0A4492B291424FEA400001D866
:10063000824201DB121A92B21046704700207047C6
:100640004B6902490B610121184700BFCC0500200E
:10065000034A034610780BB1FFF76CBFFFF770BF7A
:10066000A8050020024B02225A8000221A7170470E
:100670007C070020024B00221A80FFF7F3BF00BF67
:100680007C0700200020FFF7F5BF01207047FFFF27
:100690008B79012B70B512D1CB79022B0FD10023AE
:1006A0008D781846CC79022C1BD1824209D84FF0A4
:1006B000E023D3F8F00D10F0010025D000BE00209B
:1006C00022E08C78AC42F2D1CE78DCB2A642EED1F8
:1006D0000C78214420448C79012C80B203F1010371
:1006E000E0D04B78212BE2D1084B8A781A70B1F810
:1006F00005300930402B80B206D94FF0E023D3F803
:10070000F03DDB0700D500BE70BD00BF7C070020B8
:10071000BFF34F8F0549064BCA6802F4E0621343EA
:10072000CB60BFF34F8F00BFFDE700BF00ED00E0DF
:100730000400FA0582B0002301930C235843019B67
:10074000984201D802B0704700BF019B013301936A
:10075000F5E708B5014600224FF47A700132FFF741
:10076000E9FF9142F8D108BDF8B50D4D06460C469B
:100770000027B74200D1F8BD2B8C9BB243F4006335
:100780002B842046FFF7E5FF2B8C23F400631B042A
:100790001B0C2B842046FFF7DCFF0137E9E700BF85
:1007A00000000440154B30B5072104460125002008
:1007B00044FA01F212F0010F1A8C0BBF22F08002F2
:1007C00092B2120442F0800208BF120C1A841A8CF2
:1007D00092B242F004021A84DA8C520644BF05FA3F
:1007E00001F210431A8C22F004024FEA024248BF81
:1007F000C0B2120C01391A84DAD230BD00000440B4
:100800000B4B0C49DA786FF3C712DA70DA7842F0E2
:100810004002DA700022CA648A648A65CA65D9789F
:1008200062F38611D970DA7842F08002DA7070478C
:10083000000D044000080440F8B5134F3B8C23F032
:1008400008031B041B0C06463B8403200C4615467C
:10085000FFF7A8FFC6F30740FFF7A4FFC6F3072082
:10086000FFF7A0FFF0B2FFF79DFF25440020FFF740
:1008700099FF04F8010BAC42F8D13B8C9BB243F0DA
:1008800008033B84F8BD00BF0000044010B501F12F
:10089000080400F00F02D3B2092ACCBF373330333B
:1008A00004F8013DA1424FEA1010F2D110BDFFFF44
:1008B00008B50146FFF798FEBFF35F8F4B09054A65
:1008C00001F01F010120603300FA01F142F823100A
:1008D00008BD00BF00E100E00123420900F01F0055
:1008E00003FA00F0014B43F82200704700E100E0FA
:1008F00068B10268084B9A420BD1084BB3F8B23F7B
:1009000003F08103002B0CBF00200820704701205A
:1009100070470720704700BF4E45504F00F07E40A3
:1009200008B50146FFF7E4FFA0B94B68086093F9EA
:10093000113013F1210F0DD05A09012103F01F03CB
:1009400001FA03F32032044941F82230BFF34F8FFC
:10095000BFF36F8F08BD00BF00E100E038B514465B
:100960001D46FFF7C5FFD8B9B1F5802F0AD20B1984
:10097000B3F5802F04D885B14A0712D163070CD094
:1009800017200DE001F13F4303F57003B3F5005F5D
:1009900007D2054B21449942F2D8002C08BF1720FA
:1009A00038BD1620FCE700BF00201040084B002295
:1009B0001A719A78042A02D103229A707047072A82
:1009C000FCD11A7812F0040F14BF06220822F4E7B3
:1009D0007C07002008B50378012B06D103490B885A
:1009E0001BB1FFF7E3FF00230B8008BD10110020AF
:1009F000EFF31080012383F310880A4A53889BB2D7
:100A00004BB90949B1F8FE339BB243F4254343F097
:100A10000203A1F8FE33538801339BB2538080F365
:100A2000108870475C12002000E00140EFF3108155
:100A3000012383F310880C4A53889BB21BB153885F
:100A4000013B9BB2538053889BB24BB9074AB2F823
:100A5000FE339BB223F0020343F42543A2F8FE3396
:100A600081F31088704700BF5C12002000E0014055
:100A7000064B07481B68B0FBF3F30648B0FBF3F0E6
:100A8000800801D0FFF7A0BD704700BFC00500205F
:100A900000CA9A3B400D03002DE9F74F524D534ECB
:100AA00004464FF00008238898452BD3EFF31080BD
:100AB000012383F310884E4B196819B94D4AD17040
:100AC0004021D1701A6801321A6080F310884A4DB3
:100AD0000020218882B2914267D8EFF31081012271
:100AE00082F310881A6812B11A68013A1A601A68FB
:100AF0001AB9404BDA708022DA7081F3108803B0A3
:100B0000BDE8F08F3D4B01934FEAC80900276368A9
:100B1000019803EB090130F8022B8988019091427A
:100B200027D153F8093095F8BB14012203F0B853CC
:100B3000BA40B3F1807F5FFA82FA07F1200B1ED131
:100B400011EA0A0F09D1FFF753FF95F8BB1441EAE8
:100B50000A0285F8BB24FFF769FF16F81B20D309AA
:100B600007D116F81B2042F0800206F81B20FFF781
:100B70007FFF0137032FCAD108F1010893E711EA7B
:100B80000A0F09D0FFF734FF95F8BB1421EA0A02D7
:100B900085F8BB24FFF74AFF16F81B20D309E8D0DD
:100BA00016F81B206FF3C712DFE7666882B206EB08
:100BB000C20156F83260898816F4803F4FEA11224C
:100BC0004FEA0212C9B20AD0571855F827C06FF37E
:100BD000104C45F827C026F4803C45F827C00A444D
:100BE000013045F8226074E700E001400040044015
:100BF00064120020000D044000080440843400000A
:100C0000030143EA801040F4847040F00100704713
:100C100010B5041E0EDB04F1604303F561430901C6
:100C2000C9B283F80013FFF743FE2046BDE8104029
:100C3000FFF752BE10BDFFFF30B5184DAB686D68B1
:100C40009C6E2D78032D98BF013408B1A0421CD3AF
:100C50005B6BD20754BF03F01F03C3F30443032DA0
:100C600007D91B0983F0010348B9A3B902234B60DC
:100C700030BD03F00C031A1F53425341F4E7A04266
:100C800001D3002BF2D10323F1E7032D98BF00F12C
:100C9000FF300860ECE7002CE8D0F4E7C012002039
:100CA00022F0010330B503445408984207D16FF095
:100CB000010303FB04220AB103780B7030BD30F846
:100CC000025B0D80F1E7FFFFF0B501F00307032F92
:100CD00085B00C4607D02E4E73681B78062B01F0AA
:100CE0000C0202D122B905B0F0BD0AB1032BFAD132
:100CF0003268284B9A42F6D1B3685B6E0133834267
:100D0000F1D34FF0FF320023CDE9022302A922469E
:100D10000190FFF791FFB2680399156B0198B1B983
:100D200014F0080F0CBF0223042314F0020F05BFB8
:100D3000DB19123302EB830302EB8303DDF808C0F7
:100D400016BFC3F84CC0C3F804C0C3F850C0630654
:100D500042BF136C43F480031364012F15D025F4B4
:100D60004035022C45EA01450AD119B1012202A9F8
:100D7000FFF762FF039B25F0407545EA036501E03C
:100D8000002FF7D1B3681D63ADE7022CEDD0F1E77A
:100D9000C012002054504700F8B503894489858863
:100DA0009BB2A4B2A34236BFC4EB450CA3EB040C28
:100DB0009C441FFA8CFC654506461ED80020074659
:100DC00003460446944228BF14463D19AF422BD136
:100DD000121B92B23AB1934228BF1346C2189042F6
:100DE00027D123449CB23189B088224689B2FFF7CB
:100DF00019FC3081F8BD5B1B9BB29D42FBD9A5421B
:100E00000FD93068A34200EB03072DBFEC1AE31A99
:100E10000020A3EB0C0335BF9CB2A4B203469BB2E7
:100E2000D0E7641BA4B2EAE791F800C007F801CB51
:100E3000CCE70D7800F8015BD1E72DE9F041B0F87F
:100E400008C0438984881FFA8CFC9BB29C4536BF3E
:100E5000C3EB4405ACEB03056544ADB2AC420746B9
:100E6000164608D2A4452CBFACEB04030CEB0403DC
:100E70009BB2438125463DB92C46A846284612E040
:100E8000ACEB040C1FFA8CFC6445F9D99C4225D9C3
:100E9000D7F800809C4508EB030022D82D1BE21AEE
:100EA0001D44ACB295B2B54228BF35462A46FFF77D
:100EB000F7FE721B92B242B1944228BF14462246FA
:100EC0004046FFF7EDFE2544ADB27989B8882A4641
:100ED00089B2FFF7A7FB7881BDE8F0811B1B9BB2AD
:100EE000D4E74FF000084446DDE7FFFF2DE9F3416A
:100EF000154CE588074625B92560012002B0BDE8FC
:100F0000F081B0F85E8008F07F0845452E4628BF86
:100F100046463EB1637A206807F11401324663B158
:100F2000FFF78BFF464538BF4FF40043A5EB06059E
:100F300038BF7B84E5800020E0E70190FFF7B0FE3A
:100F4000019830442060EDE7E00500202DE9F347EB
:100F50000C23274D4B43EA180446D7880E4627B981
:100F6000EF50012002B0BDE8F0878BB243F48062FD
:100F70000285A0F86430B0F86CA01FFA8AFA238DBD
:100F800003F00F039E42FAD1638D9B04FCD55745B5
:100F9000B84628BFD046B8F1000F0ED04FF00C096C
:100FA00009FB06F905EB090355F809005B7A04F122
:100FB000180142469BB1FFF740FFD0453CBF4FF4BC
:100FC0000043638500232385208D10F00F00FBD1A3
:100FD0000C2101FB0655A7EB0807EF80C2E7019043
:100FE000FFF75EFE0198404445F80900E5E700BFC1
:100FF000E00500202DE9F0473C4E06EBD0138A4671
:1010000093F8284014F00104074611464FEAD0191E
:101010000BD04FF0E023D3F8F03DD90703D40024E0
:101020002046BDE8F08700BEF9E7314A92F800801B
:1010300093F8282042F0010283F828202D4B53F822
:1010400038504046FFF77CFA0DB900BEFEE7002F8E
:101050003AD04FF484632B842B8C9A06FCD5264B14
:1010600000225A729980D980002939D0C3F800A093
:10107000002F31D0B5F86030180403D5B5F85430DE
:10108000190626D44FF0E023D3F8F03DDA0700D557
:1010900000BE4046FFF74EFA002CC1D106EB090313
:1010A00093F8282064F3000283F8282093F828207E
:1010B00064F3820283F828204FF0E023D3F8F03D58
:1010C000DB07ACD500BEABE72F842B8C9B06FCD492
:1010D000C5E72846FFF70AFF0124A5F86040D8E7D6
:1010E00019600523A5F860300124D2E70C08002020
:1010F000A8050020B4340000E005002010F0800FA7
:101100004FF0000211460CBF80201046FFF772BF5F
:1011100010B40346064C00685968224603C20022F8
:10112000C4E902225DF8044B1878FFF7E7BF00BF5F
:10113000CC0500202DE9F041174D184E184F804680
:1011400000242A78E3B29A4210D23C2200211548AA
:1011500001F0D2FF1022FF21134801F0CDFFBDE8BE
:10116000F04112481422FF2101F0C6BF0CD93A68A1
:1011700012EB43130BD14FF0E023D3F8F03DDB0724
:1011800000D500BEBDE8F0819B1A06EB4313DB6877
:10119000404698470134D4E7C8050020903300004A
:1011A000C40500200C0800201008002020080020A2
:1011B00070B505890389428986889BB292B29342B1
:1011C00036BFC2EB46029B1A9B189BB29E42044656
:1011D000ADB217D8C079C00914D170BD9B1B9BB2AA
:1011E000B342FBD2E2882068C2F30E0202FB030086
:1011F00001F0E8FEA08801222946FFF713FA2081BA
:101200000120EAE72B46EBE710B51C46064B1046DB
:1012100061434FF480421A6001F58041224601F09B
:10122000D1FE204610BD00BFC807002013B5124BE9
:101230009889D98993F90040421A92B2402A28BF6E
:101240004022002C0EDA884212D099680B48019295
:1012500001F0B8FE0949019A802002B0BDE81040B3
:10126000FFF7C8BE88424FF0000003D10021F4E729
:101270008020FBE70149F0E7CC050020CC070020E7
:1012800070B50446164D00680B466168AB602E468B
:1012900003C60021E981E1888A4228BF0A46AA8163
:1012A000E18881B152B14BB94FF0E022D2F8F02D74
:1012B000D20701D4002070BD00BEFBE7FFF7B6FFE8
:1012C00028B10120F7E72078FFF718FFF8E74FF083
:1012D000E023D3F8F03DDB07ECD500BEEBE700BF21
:1012E000CC05002007B58DF800208DF801301A0AD2
:1012F0001B0C8DF802208DF803308DF804100023AC
:10130000062269468DF80530FFF7BAFF03B05DF895
:1013100004FBFFFF2DE9F04F87B0A84B1D680020AC
:101320002B689847A989EB89288989B29BB2994291
:1013300036BFC3EB4002CA1A521894B29CB1A04205
:1013400005D281422CBF091A09188BB2EB81984251
:1013500025D96A896968C2F30E0202FB031103A84A
:1013600001F030FE0124E9892889224689B2FFF77D
:1013700059F92B68E88101209847002C34D09DF85A
:101380000D30013B072B00F23E83DFE813F00B002A
:101390001900A0039603960323001B0399031B1A4D
:1013A0009BB2D4E79DF80C00FFF7C4FE14228448DA
:1013B000002101F0A1FE834B9DF810209A70ACE74C
:1013C0009DF80C00FFF7B6FE142200217C4801F0C6
:1013D00093FEA2E77C4A13784BB94FF0E023D3F891
:1013E000F03DDA0700D500BE07B0BDE8F08F1378F6
:1013F000013BDBB21370127802F0FF03002A8CD19C
:10140000704CDFF8BC812278C8F8103042F001023D
:10141000227094F828209DF80C7063F3000284F881
:10142000282094F8282063F3820284F8282094F876
:10143000292063F3000284F8292094F8292063F31B
:10144000820284F829209DF8102002F06003602BAE
:1014500007D14FF0E023D3F8F03DD90706D500BE01
:1014600004E0402B0DD1594BC8F810309DF80C000A
:101470000021FFF771F89DF80C008021FFF76CF850
:101480004BE702F01F02012A00F0C281022A00F09D
:10149000ED81002ADDD1202B16D19DF814300F2BC1
:1014A000E4D84B4A234412781B79934209D2494A23
:1014B000116811EB4311D9D004AA3846FFF7C0F8E0
:1014C00033E1D3D14449F7E7002BC2D19DF8113065
:1014D000092BBED801A252F823F000BFF11700007B
:1014E000DF17000053140000C5170000531400005C
:1014F00005150000F1160000531400001F15000030
:101500002915000006AB13E903000023C8E90233E4
:10151000237843F00203C8E900012370FDE66378F5
:101520008DF80A3001226DE19DF8128063789845AC
:1015300000F051816378EBB1284B294E53F83710F6
:10154000002586F898500B8E65F34D330B86384690
:10155000FEF7F6FF01F1600B33464FF00A0CB6467A
:10156000BCF1010C40D13846FEF7E4FFA578FFF747
:10157000E1FDA57084F80180B8F1000F00F02B8127
:1015800023781849DFF8489023F0300323704FF098
:1015900001084B78042B53D04FF0E023D3F8F03DF3
:1015A000DE0700F1A3804FF0E023D3F8F03DDD0724
:1015B00000D500BE0023637058E700BF4808002034
:1015C000CC0500200C0800200C0900203D0600007E
:1015D000C8050020C405002090330000B43400008A
:1015E000E0050020E133000093F8742022B302F0FC
:1015F0007F09D20910010EEB02124A44CE8E92F8F6
:1016000078204FF0010AB6B20AFA02FA26EA0A0670
:10161000CE869AB102F1370601EB4606358096B2C6
:10162000A1F8646070440C2606FB02E28144A1F834
:101630006850157289F878500C3B91E75E46EDE7EB
:10164000A44BDFF8BCA2A3EB010B1FFA8BFB002617
:1016500099F80030F5B2AB429ED310D99E4B1B686F
:1016600013EB451398D01B6900915A4638469847AA
:101670000828009938D9834536D300220CE0EB1AAC
:101680000AEB4313EFE78E78334454FA83F30132C5
:101690001E79FF2E80D11D71D3B29845F3D808442E
:1016A000884213D899F80030AB42FFF475AF894BEC
:1016B000984280F0908043780B2B03BF037890F81A
:1016C0000380C0184FF00108014662E74B78052BF4
:1016D00007D18A7802F07F0304EB430303EBD213B4
:1016E0001D750B781944DBE70136B1E700BE5AE7F8
:1016F000BDF812301A0A511E06293FF6B7AE01A0F6
:1017000050F821F021170000331700003F170000A8
:101710006D1400006D1400006D14000033170000FC
:101720006E49122204A8FFF7ABFD00287FF4F5AD47
:101730009CE6022A7FF49AAE69494A88F2E713F0E0
:10174000FF030ED167496848022201F03BFC0120EB
:101750004000821C654942F440730B8002F0FE0297
:10176000E0E7052B3FF682AE614A624C52F8235007
:101770002378BBB9604BD3F89C3103F11406586948
:101780002146FFF783F8706804F10801FFF77EF83F
:10179000B06804F11001FFF779F8F06804F118015E
:1017A000FFF774F8284601F00BFD5049C0B2002342
:1017B000DAB2824203F10103CAD2541CAA5C21F8B6
:1017C0001420F5E7BDF81230012B7FF44FAE2378DB
:1017D00043F00803237004A8FFF79AFC9DE5BDF8C9
:1017E0001230012B7FF442AE23786FF3C303F1E78D
:1017F0002378C3F340129B0803F002031343ADF8B0
:101800000A3002220DF10A0104A8FFF739FD84E530
:101810009DF814300F2B3FF629AE384A2344127836
:101820001B7993421ED22C4A116811EB43113FF4ED
:101830001DAE04AA3846FEF703FF00287FF46DAD05
:101840009DF8103013F060037FF410AE9DF8112066
:10185000A2F10A0101293FF609AE0A2AC8F81030A0
:10186000B9D15DE67FF402AE2549E2E79DF8149018
:1018700009F07F02092A3FF6ECAD550004EB420265
:101880001E4902EBD9120978127D8A424FEAD91A11
:1018900014D211490E6806EB4216BBB99DF81130FF
:1018A00003F0FD02012A2DD0002B7FF4D2AD2C4491
:1018B000A2449AF82830C3F34003A0E740F00A811D
:1018C0000F4E002BEAD004AA3146F6E5002E3FF475
:1018D000CDADF8E7FC330000C4050020FC33000068
:1018E000D83300008D3300007E0600207C060020E7
:1018F000BC3400006812002000B07F40C805002002
:1019000090330000BDF81220002A39D1744A012B0F
:1019100092F800B045D1494658460193FEF7F0FDD4
:101920000146F8B16F4A584652F83B200092FEF744
:1019300007FE4FF48070DDE900230880BAF1000F44
:1019400001D00B800BE06848484490F87800A2F87A
:101950006400B2F86820C2F38132012AF1D15846FE
:10196000FEF7E8FD2544AA449AF828306FF34103B6
:101970008AF828309AF828306FF300038AF8283064
:10198000002E3FF4CAAC04AA31463846FEF758FE92
:101990000023C8F8103094F82930D8073FF5BDACC3
:1019A00019E72544AA4449465846FEF7D5FD9AF85A
:1019B000283043F002038AF828309AF8283043F0A0
:1019C0000103DBE79DF81010484B01F07F0003EBAB
:1019D000400303EBD113CF0993F828206FF30002E3
:1019E00083F8282093F828206FF3820283F82820B8
:1019F00000284BD13E4C9DF80C602378059DB7EB39
:101A0000D31F12D045B14FF0E023D3F8F03DDB07F0
:101A10007FF583AC00BE80E42369002B3FF47DACEE
:101A2000224603213046984777E494F90030002B92
:101A300007DBA06800283FF470AC2E492A4601F06D
:101A4000C1FAA268E3892A442B44A260E2889BB2CF
:101A50009A42E38101D03F2D15D8236933B920780C
:101A6000FFF74CFB00287FF458ACCCE70221204A5A
:101A70003046984701460028F1D13046FEF76CFD0C
:101A800080213046FAE4FFF7D1FBEBE71A7D1A4BD1
:101A90001B789A420DD2194B1B6813EB42133FF48B
:101AA0009CAC9C699DF81120059B9DF80C00A047FB
:101AB00033E47FF492AC124BF3E70C4B1B782CE42D
:101AC000049B002B3FF429AC0598984725E4074B6D
:101AD000DB7822E4002B7FF4C9AC0026DEE600BFF1
:101AE000A8050020B4340000E00500200C08002008
:101AF000CC050020CC070020C8050020C40500202C
:101B00009033000008B5074C074E256832782368EB
:101B10005B1B632B01D9FEF7FBFDFF2AF7D0FFF714
:101B2000F9FBF3E7E4120020A80500202DE9FF41AE
:101B30004378023B0446042B13D8DFE803F0037A12
:101B4000161E8000404B1A786FF300021A701A7844
:101B500000216FF341021A7059701A7861F3820202
:101B60001A703A4B2146186851E0374B1A78D6075D
:101B700058D51A7842F00402F2E7334A1378DD07A9
:101B800050D513786FF382031370EAE74DD9D8F874
:101B9000002012EB431304D0DB6913B16168207895
:101BA000984701353278EBB29A42EFD2264D2B7826
:101BB00058071BD52B786FF382032B700023CDE9D8
:101BC0000133039323788DF8043005238DF8053015
:101BD0001E4B186801A90430FFF7EAFA30B94FF03C
:101BE000E023D3F8F03DD90700D500BEEB78DA0743
:101BF00018D500230193039323788DF80430032331
:101C00008DF8053063680293104B186801A9043001
:101C1000FFF7CEFA30B94FF0E023D3F8F03DDB0701
:101C200000D500BE04B0BDE8F0819B1A07EB43135A
:101C3000B2E7074E074FDFF824800025B2E7064AD7
:101C400013780133DBB29FE70C080020480800201E
:101C5000C8050020903300000C090020C4050020B6
:101C60002DE9F04F89B0EFF30380103840B2FEF752
:101C7000BBFCB04BB3F84010CA4362F478428CB25C
:101C800092B20904A3F840200CD5B3F8402012F01A
:101C9000800FC2F3C0111A8814BF42F0100261F322
:101CA00004121A80620412D50023CDE9053307938C
:101CB00005A805238DF81530FFF738FF9E4B93F8E4
:101CC000981021B99B4B1A8E61F34D321A86A304EA
:101CD00019D5984D2B8E9F0415D5B5F84C300022A0
:101CE000C3F30A030592079205A803228DF8152075
:101CF0000693FFF71BFF904B93F898201AB92B8E91
:101D000062F34D332B86E60407D504F07003202BD5
:101D100000F0DC805ED8102B7AD020052DD5E107AD
:101D200040F1F380834BB3F84020120725D54FF4E0
:101D300080425A84B3F85420ADF80C20B3F85620F2
:101D4000ADF80E20B3F85820ADF81020B3F85A20A3
:101D5000ADF812204FF6F772A3F840200023CDE92A
:101D6000053307930822062303A906A88DF815302A
:101D700001F028F905A8FFF7D9FE670515D56D48CC
:101D8000B0F84A300022DE07A0F84A200DD5FFF750
:101D9000ADF850B1684B4FF4E0659B880793802203
:101DA00005A8CDE90552FFF7C1FEE0050FD5614B4F
:101DB000614CDA8EB3F84660DFF88CA1B6B21640FB
:101DC000F24392B2A3F84620002E40F0BF8009B043
:101DD000BDE8F08F602B04D018D804F06003402BCE
:101DE0009BD10023CDE90533079305A804238DF883
:101DF0001530FFF79BFE504B93F89830002B8CD199
:101E00004C4A138E43F40053138686E7702BE7E7A2
:101E1000484B01225A87DA864FF480425A840022C6
:101E20001A851A8D12F00F02FBD19A859A8D12F045
:101E30000F02FBD1414D42493E48012394464FF4E5
:101E400000774FF480761FFA83FEA0F864E0A0F8D4
:101E500068C021F8137021F8132025F8236001339E
:101E6000062BF0D10025334E28464FF400729FB266
:101E7000A6F86470A6F8680021F8132021F8135022
:101E800001330A2BF3D12C489C22002101F034F9B4
:101E9000338903F00703013B9BB2022B0DD8294A7B
:101EA0000795D35C0122CDE905558DF815208DF8F5
:101EB000183005A8FFF73AFE2FE74FF0E023D3F8DC
:101EC000F03DDD077FF529AF00BE26E7194BB3F8DB
:101ED000503013F07F023FF420AF00230521CDE9FD
:101EE00005338DF80C308DF80D10ADF80E20ADF8DF
:101EF0001030ADF8123007930822062303A906A874
:101F00008DF8153001F05EF8D3E714F007037FF485
:101F100034AF084A128C079312F0200F14BF8022AE
:101F200000220721CDE905338DF815108DF8182012
:101F300020E700BF00000940E00500208C000940B8
:101F40006E0009408A3300001400094096FAA6F595
:101F5000B5FA85F50C2202FB0542137ADB091DD088
:101F600054482946FEF7F2FF90B10C2303FB0543CA
:101F700005A89A88197ADB88D31A0022CDE90522B0
:101F800007228DF815208DF818100793FFF7CEFD66
:101F9000012303FA05F526EA050615E7454B002D52
:101FA00052D0B2F806B0AAB21A85A3F86420B3F8EA
:101FB0006C901FFA89F91A8D02F00F029542FAD13E
:101FC0005A8D9104FCD55F8DC7F30B074F4528BF91
:101FD0004F460C236B43BB45D84628BFB846E05854
:101FE000E218B8F1000F07D0537AF3B132490190EB
:101FF0004246FEF7D1FE01982E4BC14584BF4FF4F7
:1020000080425A8500221A851A8D1207FCD10C23B2
:1020100003FB0542ABEB0801C145D18001D8BB45AC
:10202000B6D86B430022E2509EE7224900EB08023B
:102030000346934203D10C226A43A350DCE791F894
:1020400018C003F801CBF4E7B3F85E905F8CB4F8E6
:1020500006B0C7F30B0709F07F094F4528BF4F466D
:10206000BB45D84628BFB846B8F1000F06D0627A03
:102070002068A2B142465146FEF78EFEC14582BF9E
:102080000C4B4FF480425A84ABEB0803C145E3800C
:1020900002D8BB453FF67CAF0023236065E700EB29
:1020A0000802904201D12060E8E7197D00F8011B89
:1020B000F7E700BF0000094018000940FFF7D0BD56
:1020C00038B504463048314A036A1168C3F30262E6
:1020D00001FA02F2C3F30273DA402D4BE2609A4236
:1020E00008D82C4B9A4205D02B4B9A4202D02B4B4E
:1020F0009A4246D1006A274DC0F3026001FA00F30C
:10210000C34002F5742202F23F2203F57423B2FBAE
:10211000F5F2E26040F28352062003F23F23B3FB64
:10212000F5F35A43B2FBF0F2226140F276325A43A1
:10213000B2FBF0F2626158225A43B2FBF0F2A261A4
:10214000174A1849A3605A43B2FBF0F2E261164AFB
:102150005A43B2FBF0F22262144A5343144AB3FBCF
:10216000F0F36362002381F8C03F92F890100129D8
:1021700005D0012182F89010A16801F0A9F8184655
:1021800001E04FF4FB7038BD00E00140C0050020C5
:10219000FF083D0040420F0080841E00C0C62D0095
:1021A000B86A050000F07E40D066050068ED2200A8
:1021B00000C07E4013B5114B4AF68022A3F8B22F1F
:1021C0000F4B81680446062001F082F893F8A03096
:1021D0009B070CBF1020502001F06AF863681A7842
:1021E00052B193F911000190FEF762FB019802B021
:1021F000BDE81040FEF770BB02B010BD00F07E409D
:1022000000E0014008B538B10268054B9A4205D19B
:1022100001F046F8002008BD0120FCE70720FAE79E
:102220004E45504F37B50446002941D000283FD0D5
:10223000204D0368AB4237D00B782BB191F91130A8
:10224000002B33DB4B689BB361600B7883B191F952
:1022500011000B7C00F1604202F561421B01DBB210
:1022600082F800330190FEF723FB0198FEF734FB60
:10227000002384F834302046FFF722FF90B920462F
:10228000FFF798FFE3680C4A013BD2F8D81103F03E
:102290001F0363F30501C2F8D811204601F00CF8C2
:1022A00000B9256003B030BD0E20FBE70B20F9E735
:1022B0000120F7E74E45504F00C07E402DE9F04128
:1022C00005461746FEF714FB064608B91FB9152642
:1022D0003046BDE8F081B1F5802F85F8340010D28A
:1022E00021F4FF6121F0070101EBC723B3F5802F33
:1022F000EDD83A4628464FF40063BDE8F04100F0BF
:10230000DFBF21F47F7424F0030404F13F4303F59D
:102310007003B3F5005F4FEA872830D2194B04EB06
:1023200008029A42D3D86B681B7813B1022385F850
:1023300034302846FFF73EFF134A92F8043104F187
:102340003D406FF3000300F5700082F80431414610
:10235000A8622F63842200F0B7FF6B681B78002B04
:10236000B6D1296A192311227943284600F09CFF2F
:1023700006460028ACD1284600F09EFFA8E71626A6
:10238000A6E700BF0020104000C07E402DE9F041CC
:1023900016461F46884601233A4631460446FEF754
:1023A000DDFA054600285BD1B6F5802F84F83400AD
:1023B0000AD2B8F5802F59D93B46324641462046CD
:1023C000BDE8F04100F088BFC4E90A86636827636E
:1023D0001B7813B1012384F83430254E2046FFF7D3
:1023E000E9FE96F804316FF3000386F80431D4E96E
:1023F0000A2303F13D4303F57003190C9BB2A6F8C1
:102400001011A6F808311378C6F83031812386F808
:10241000143163681B781BBB164F616918231222A5
:10242000204600F041FF0546E8B9A26A256B531C1F
:10243000A362E36A013D591CE16225636DB13B442F
:10244000190C9BB2A6F81011A6F808315378C6F8FB
:102450003031812386F81431DFE7204600F02CFF6D
:102460002846BDE8F0810828D7D0F9E70125F7E72D
:1024700000C07E400100F0BD2DE98048AE4BAF4862
:10248000AF4F4FF47002C3F888209F604AF20253A6
:10249000A0F8FE33012397B080F81F3490F8B134D0
:1024A000DE06FBD54FF42543A0F8FE334AF2035372
:1024B000A0F8FE33A34BA449A44D0022A3F80021A9
:1024C000A34BC3E900514FF40041C3E902121A6162
:1024D000FEF766F8012380F8803490F8A030002BD6
:1024E00040F00F819548002380F8363090F83C305A
:1024F000DA07FBD50124974B80F8314003620023B3
:1025000080F82630FEF74CF84FF4254380F8D04091
:10251000A0F8FE338B4BA3F80441B3F80451ADB2DD
:10252000002DFAD14FF00108A3F800818DF8175063
:102530009DF81730FEF75CFAEFF3108288F31088ED
:10254000854CD4F8043123F00043C4F80431D4F8A6
:10255000043182F31088814E3368C3F300038DF891
:1025600017303368C3F300038DF817303368C3F3B3
:1025700000038DF81730EFF3108288F31088D4F839
:10258000043143F00043C4F80431D4F8043182F339
:102590001088FEF74BFA724B72489D804FF425422B
:1025A0001A803A68704FA2F500619960DA606F4A4C
:1025B0004FF48051A2F820116D4AA3F80480121A3A
:1025C000294600F099FD6B486B4A6C49121A00F0DD
:1025D000F9FC6B4BFF1ABF109846AF4200F3A7807F
:1025E000FDF7DEFF674B002583F82850FEF700FA61
:1025F000524B83F8BB54FEF719FA634A5B492B46EA
:1026000003F1C000013312F8015B41F82050202B88
:10261000F6D162B65D4DDFF88C912B684B4504D046
:102620005B48C5F80090FEF737FA5A4B4FF47A72C0
:102630001B68B3FBF2F3013BB3F1807F0AD24FF08A
:10264000E022F02153613C4B83F823100023936177
:10265000072313612B684B4502BF4F4B4FF00062BD
:102660009A624E4BDA786FF3C712DA70DA7842F07A
:102670004002DA700522F2644FF004081022C6F816
:102680004880C6F85C80C6F86C80B265DA786FF373
:102690008612DA70DA7842F08002DA703E4A138CE1
:1026A0009BB243F008031384138C23F004031B0430
:1026B0001B0C1384138C23F400631B041B0C138466
:1026C0006420FEF737F8C8210120FEF74DF84022BC
:1026D00006A90020FEF7B0F8314B069A9A4279D14C
:1026E0009DF81C30012B75D164210320FEF73CF8C6
:1026F000089B013BB3F5703F56D34FF4967103200E
:1027000066E090F836200D4B1AB993F83C20D407B8
:10271000FBD593F8A020D006C2F30011F9D4074AE4
:1027200083F8A01092F8A030D906FBD4DAE658F866
:10273000043B9847013550E700ED00E000E0014020
:102740000000000000C0014000127A00006CDC02B2
:10275000AC05002000010110006F04400008044097
:10276000000D0040C0050020AC05002000600040C6
:10277000E812002000000020AC050020D434000046
:10278000AC0500200040044034340000B4120020A6
:1027900018340000C005002000000440000D044073
:1027A0003412AA5554524F509A4F00233B70FF23C6
:1027B0003B7072B698499948089DFFF733FD002891
:1027C00000F054810E2800F0518162B66421404629
:1027D000FDF7CAFFFEF714F8914B924AD3F80015A3
:1027E000914240F015824AF20252A3F8FE230022E1
:1027F000C3F800254FF42542A3F8FE238A4B1A683C
:102800004A4504D08948C3F80090FEF745F9884D41
:10281000884F2B68BB4262D00823EB60864B874A07
:102820006B60002601232B74AA606E61C5E9066601
:10283000EFF3108283F31088D4F8083123F04003BB
:10284000C4F80831D4F8083182F31088AB684FF42B
:1028500025421A60AB684FF08072DE62DE639E64D0
:10286000DA624FF000421A615A619A6149F69502A4
:102870005E6206A99E6244F64B40DE611E629A6665
:102880005A664FF0FF333246CDE90636FEF7D4F9EB
:10289000AA68069B53659365079B3046190641EA73
:1028A0000341FEF7ADF94FF4AA039663C2F88860BE
:1028B0001364EB68D36041F0030341F001015063FE
:1028C000136330461163FF21FEF7A2F9314630460B
:1028D000FEF79EF931463046FEF79AF92F60696897
:1028E000087844F61F6344F62062032898BF1A460E
:1028F000AB689A66097819B942F20F715965996502
:10290000D96ACE0705D45A664FF4AA021A64EA6857
:10291000DA6000210846FEF7D7F92B683E493F48A8
:10292000BB4208BFD5E90232454D08BF5A60FFF7E8
:1029300079FC3A48FFF766FC2B78FF2B40F0D081FA
:102940003C224048002100F0D7FB3F4B00221A7088
:102950003E4BDA819A813E4A13603E4B23B13E489A
:10296000AFF300803D4B18603B4FDFF8FC80DFF891
:10297000EC9000263A78F3B2934240F2A481002210
:102980002A70D4F80031364923F40063C4F80031CA
:10299000344B81F898201A8842F480621A801A8891
:1029A0005005FCD51A886FF345121A801A886FF308
:1029B00086121A801A8842F001021A800522C3F892
:1029C000F020D3F800246FF30412C3F80024B3F806
:1029D0005E20402060F30602A3F85E200022A3F8E8
:1029E000402091F8983093421E4B14BF4FF47D4223
:1029F0004FF45D421A8601225A87DA86B3F84020E6
:102A0000120642BF1A8842F010021A800020FDF719
:102A100091FD65E1004404402034000024120020B0
:102A200000E0014035817307AC1200208C340000B7
:102A3000C012002054504700943400000083074027
:102A4000A80500200C0800200C0900209805002093
:102A50004808002000000000C8050020C405002030
:102A6000E00500200000094090330000BB48FFF75C
:102A7000C9FB4FF0FF364FF480484FF4805B0023D2
:102A8000002D47D0B5F5807FAA4628BF4FF4807A45
:102A90000AF10F023B70FF2122F00F0339700193FE
:102AA0004344B3F5802F029300F2A7804FF4807265
:102AB000AB4800F021FBAA4952465846FDF7BCFE40
:102AC0000023A7491A4611F8013B5E40082306F08F
:102AD0000100760838B186F06D4686F4380686F433
:102AE000034686F02006013BF1D101329245EAD13E
:102AF000C8F30A020393002A6BD198480122414689
:102B0000FFF7DCFB039B002860D0B8F5804F0CBFBB
:102B10000525072500233B70FF233B708F48FDF7F9
:102B2000FFFE62B6002D70D1099BF6439E427FF4F2
:102B3000E4AD8C4C238C23F008031B041B0C238472
:102B40000620FDF72FFE238C9BB243F0080323845D
:102B5000238C23F008031B041B0C23842020FDF787
:102B600021FE2846FDF71EFE2846FDF71BFE2846DF
:102B7000FDF718FE238C9BB243F008032384238CBB
:102B800023F008031B041B0C23840520FDF70AFE19
:102B90000020FDF707FEC30733D4724C238C9BB291
:102BA00043F008032384238C9BB243F40063238403
:102BB0004FF4FA60FDF7CDFD238C23F400631B0472
:102BC0001B0C2384FDF71CFEFDF7A2FD3B70FF23C9
:102BD0003B70019B624961484246FFF7D7FB30B129
:102BE00016280CD017280CBF0925062592E7DDF81A
:102BF0000880D344A5EB0A0541E707258AE70825A5
:102C000088E76420FDF796FDC2E764212846DFE5EA
:102C100093F81014CF0709D44AF20251A3F8FE1317
:102C2000C3F800254FF42542A3F8FE234E4A13684B
:102C3000B3F5FA7FFBD34D4B4AF2025600214FF415
:102C400025454FF48042A3F8FE63C3F80015A3F8AE
:102C5000FE53106800F07F40B0F1005F7FF4CEAD0E
:102C6000A3F8FE63EFF31087012686F31088D4F8EB
:102C7000000140F40060C4F80001D4F8000187F3BB
:102C80001088EFF3108786F31088D4F8000140F421
:102C90008050C4F80001D4F8000187F31088A3F82D
:102CA000FE53334B998072B6BFF34F8FBFF36F8FD4
:102CB0004FF0E0231961C3F8082D136883F30888E7
:102CC000536898479AE52FD2D9F8002012EB4313A6
:102CD0002DD14FF0E023D3F8F03DDC0700D500BE46
:102CE000FDF750FCDFF88080224F234E2B78FF2B1E
:102CF00001D0FEF70FFBD8F800203B68D21A632AF8
:102D0000F4D934686433002120463B60FDF7DCFFD2
:102D10001A4B1A78AAB1B4F5FA6F0ED200221A70C3
:102D20004FF4FA633360E1E79B1A08EB43135B68E7
:102D30000136002BCDD098471CE6A4F5FA64346028
:102D4000D4E704F5FA6444F61F6294423460CDD9A6
:102D500001221A7044F62063E4E700BF2412002029
:102D60002011002000000440E412002000E0014097
:102D7000000D0040E0120020BC12002020120020B4
:102D8000064B074A1B88074802EA8312064B19685C
:102D90004FF400630A440549FFF7F8BA0E09002012
:102DA00000F8FFFF24120020C807002010090020AF
:102DB00070B513780C4603F01F010129164640F048
:102DC000ED8013F060031CD152780A2A0FD00B2A31
:102DD00040F0E480012C40F0C180714B72885A7041
:102DE000FDF740FC3046BDE87040FEF791B9012C7C
:102DF00040F0B4806B4922463046BDE87040FEF793
:102E00003FBA202B40F0CA805378062B00F2C680D0
:102E1000DFE803F004351F5410161000012C04D114
:102E20003046FEF775F9204670BD032C40F09680C1
:102E3000FEF768FE012C40F09180FDF713FCEFE7F0
:102E4000012C40F08B80584922463046FEF718FA94
:102E5000E9E7012C40F08280514D2C7814F00204F7
:102E6000E1D0F388402B00F299807188687805F1F1
:102E70000C02FEF7C9F905F10C010246BCE7012C72
:102E80006CD1474B1C7814F00104CCD09A78022AFC
:102E900002D0052A40F08280F288402A7ED80122A2
:102EA0001A717288DA80F2881A81F2881AB10321C5
:102EB00099703E49A0E706229A7093E7384DA978A9
:102EC000032906D006294BD0012C47D1EA780023EC
:102ED0000AE0012C0DD12B79EA78002B08BF0521DF
:102EE0004FF0000318BF04213046BDE87040FEF7E4
:102EF000F9B9032C32D12C79002C2DD02C4A042383
:102F00004FF48041AB701160EB882A492D890B800A
:102F10009B0113F4F86F07D172B61168264801229D
:102F20001944FFF7CBF962B6244E254833881F4970
:102F30002A46184400F046F833881D44ADB2B5F572
:102F4000006F358005D172B6FFF71AFF62B6002315
:102F50003380FDF72BFD66E70523AB70012462E7A4
:102F6000012C09D12B79EA78002B08BF02214FF000
:102F7000000318BF0721B7E7032CEFD12C795CB110
:102F80000723AB7072B6FFF7FBFE62B60A48FDF787
:102F90000DFDFDF7C5FC46E70223DEE7002442E70E
:102FA0007C0700207D0700207E0700208807002086
:102FB000C80700200E090020241200201011002054
:102FC00010090020844641EA000313F003036DD189
:102FD000403A41D351F8043B40F8043B51F8043BDC
:102FE00040F8043B51F8043B40F8043B51F8043BE3
:102FF00040F8043B51F8043B40F8043B51F8043BD3
:1030000040F8043B51F8043B40F8043B51F8043BC2
:1030100040F8043B51F8043B40F8043B51F8043BB2
:1030200040F8043B51F8043B40F8043B51F8043BA2
:1030300040F8043B51F8043B40F8043B51F8043B92
:1030400040F8043B51F8043B40F8043B51F8043B82
:1030500040F8043B403ABDD2303211D351F8043B22
:1030600040F8043B51F8043B40F8043B51F8043B62
:1030700040F8043B51F8043B40F8043B103AEDD2D1
:103080000C3205D351F8043B40F8043B043AF9D222
:10309000043208D0D2071CBF11F8013B00F8013BF5
:1030A00001D30B8803806046704700BF082A13D302
:1030B0008B078DD010F003038AD0C3F10403D21A1A
:1030C000DB071CBF11F8013B00F8013B80D331F84E
:1030D000023B20F8023B7BE7043AD9D3013A11F8CE
:1030E000013B00F8013BF9D20B7803704B78437039
:1030F0008B78837060467047830730B548D0541E84
:10310000002A3FD0CAB2034601E0013C3AD303F89B
:10311000012B9D07F9D1032C2DD9CDB245EA052508
:103120000F2C45EA054536D9A4F1100222F00F0C08
:1031300003F1200EE6444FEA121C03F1100242E9AB
:10314000045542E9025510327245F8D10CF10102E2
:1031500014F00C0F03EB021204F00F0C13D0ACF1BF
:10316000040323F003030433134442F8045B934243
:10317000FBD10CF003042CB1CAB21C4403F8012BA0
:103180009C42FBD130BD64461346002CF4D1F9E7D4
:1031900003461446BFE71A46A446E0E7FFFFFFFFD9
:1031A000FFFFFFFFFFFFFFFFFFFFFFFFFFFFFFFF2F
:1031B000FFFFFFFFFFFFFFFFFFFFFFFFFFFFFFFF1F
:1031C00090F800F06DE9024520F007016FF0000C67
:1031D00010F0070491F820F040F049804FF000040F
:1031E0006FF00700D1E9002391F840F000F10800EA
:1031F00082FA4CF2A4FA8CF283FA4CF3A2FA8CF322
:103200004BBBD1E9022382FA4CF200F10800A4FA88
:103210008CF283FA4CF3A2FA8CF3E3B9D1E90423DC
:1032200082FA4CF200F10800A4FA8CF283FA4CF313
:10323000A2FA8CF37BB9D1E9062301F1200182FACD
:103240004CF200F10800A4FA8CF283FA4CF3A2FAD3
:103250008CF3002BC6D0002A04BF04301A4612BAE1
:10326000B2FA82F2FDE8024500EBD2007047D1E9E4
:10327000002304F00305C4F100004FEAC50514F073
:10328000040F91F840F00CFA05F562EA05021CBF44
:1032900063EA050362464FF00004A9E7FFFFFFFF62
:1032A0005FF800F0390100205FF800F07D01002098
:1032B0005FF800F08F0000205FF800F0B9000020F8
:1032C0005FF800F0110300205FF800F0010000201B
:1032D0005FF800F07D0000205FF800F03904002066
:1032E00000000504342E352E30004275696C7420C0
:1032F000776974682052656E6573617320416476E6
:10330000616E63656420466C657869626C65205304
:103310006F667477617265205061636B61676520C9
:1033200076657273696F6E20342E352E30004172CF
:103330006475696E6F00554E4F205234204D696E92
:10334000696D61204446550040436F6465466C6179
:103350007368202F307830303030303030302F38B4
:103360002A324B612C3132302A324B6700404461A3
:103370007461466C617368202F307830383030309B
:103380003030302F382A314B67000100020904FF2A
:1033900000000000850600008B0600007506000096
:1033A00091060000B12D00000000000000000000A8
:1033B000040000000B010000000000000A010000F2
:1033C0000000011307040000000001130E090000B3
:1033D000000001130F090000090224000101008010
:1033E000320904000000FE0102040904000100FE8D
:1033F000010205092107E803400001011201000252
:103400000000004041236903000101020301FFFFA6
:10341000000001030B01000005000000B0330000B4
:1034200000000000D50900000000000000000000BE
:1034300002070208333431320000000000000000AF
:10344000000000000000000000000000000000007C
:10345000000000000100000000000000000000006B
:10346000000000000000000000000000000000005C
:10347000000000000000000000000000000000004C
:1034800000000000020403040404FFFF0100000028
:1034900010340000020000009698000002000000B6
:1034A0004B4C000003FF0000000000000000000083
:1034B0005434000000000940000000008D3300007B
:1034C0002E3300003633000068120020483300001D
:1034D0006D33000010B5431E19440B4B93F80441A3
:1034E0006FF3000483F80441040C80B2A3F8104188
:1034F000D2B2A3F80801080C89B2C3F82001A3F8DE
:10350000181183F8142110BD00C07E4082B00F4B0B
:103510000190D3F82C2151060FD5002283F81421F5
:103520000190D3F82C21C2F38010520608D5019ADD
:103530002AB1019A013A0192F3E7019A12B91420D3
:1035400002B07047019A013A0192E2E700C07E4062
:103550004143032904D98908A1F101010029FBD1C4
:103560007047094BA522C3F88021C243D2B283F829
:10357000000183F8002183F8000193F800318342B1
:1035800000D100BF704700BF00C07E4073B51D4E24
:10359000B6F8B24FA4B24FF49643012C05460193FE
:1035A00009D19220FFF7DDFF0320A968FFF7D0FFC4
:1035B0001220FFF7D6FF0820FFF7D3FFA9680620E7
:1035C0004FF42A43FFF7C4FFA6F8B23FB6F8B20F94
:1035D00080B270B9012C0AD10B4BA3F80441B3F8A7
:1035E000040180B20028FAD10122A3F8002102B020
:1035F00070BD019B1BB1019B013B0193E6E71420C9
:10360000F5E700BF00F07E4000C0014010B5002388
:1036100080F834300C4BB3F8B23F9BB204460BB980
:1036200000F020FA094BD3F8242142F00102C3F83C
:103630002421D3F824216FF30002C3F8242120466B
:10364000BDE81040A2E700BF00F07E4000C07E4011
:10365000F8B50546084616461F46FFF757FF1428DB
:10366000044604D12846FFF7D1FF2046F8BD054B9C
:10367000D3F8F0413440F8D02846FFF7C7FF3C4666
:10368000F3E700BF00C07E4010B50023934200D195
:1036900010BDCC5CC4540133F8E738B51D4B002293
:1036A000A3F8002143681A7804467AB193F91130DF
:1036B00001215A0903F01F0301FA03F320321649CE
:1036C00041F82230BFF34F8FBFF36F8F134B4AF691
:1036D0000122A3F8B22F1220FFF743FF104BA1687D
:1036E0000320FFF735FF93F8A0300340002B0BBFFA
:1036F0008221C2219220D2200CBF06250425FFF78B
:1037000030FF0846FFF72DFFA1682846BDE8384086
:103710001EE700BF00C0014000E100E000F07E4075
:1037200000E0014082B00F4B0190D3F82C2111062C
:103730000FD50022C3F8DC210190D3F82C21C2F36D
:10374000C010120608D5019A2AB1019A013A0192D5
:10375000F3E7019A12B9142002B07047019A013AB6
:103760000192E2E700C07E4038B50546406AFFF7A7
:10377000D9FF1428044604D12846FFF747FF204606
:1037800038BD054BD3F8F04114F01204F7D02846A9
:10379000FFF73CFF1824F2E700C07E40F8B505466D
:1037A00014460F461E46FFF778FF2146832238460F
:1037B000FFF790FE0334A969A4084FF4FC731022AC
:1037C00061432846FFF744FF48B9054BD3F8283139
:1037D000C3F3C00333702846BDE8F840D6E6F8BD11
:1037E00000C07E40F8B5044615460E461F46FFF75A
:1037F00054FF0D4B93F804216FF3000283F804216A
:1038000007FB05F184223046FFF764FEE1691923C6
:10381000112269432046FFF71BFF18B92046BDE877
:10382000F840B3E6F8BD00BF00C07E402DE9F84F78
:10383000894680469246FFF730FF214C4D4683274C
:103840004FF6FF7B94F8043143F0010384F8043110
:10385000BAF1000F1DD1C4F830B1C4F838B1C4F8C2
:10386000DC714046FFF780FF94F804316FF30003EA
:10387000013784F80431064618B9872F05F104058D
:10388000E0D14046FFF782FE002E18BF3046BDE86B
:10389000F88F6A782B7843EA0223C4F83031BB00F2
:1038A000B3F5067F0DBFB9F80E30EA78AB784AEA77
:1038B000030318BF43EA0223C4F83831CFE700BF3F
:1038C00000C07E4013B5104C0B0C89B2A4F8103127
:1038D0000822A4F8081101466846FFF7D5FEBDF896
:1038E0000030C4F83031BDF80230C4F83831BDF8CA
:1038F0000430C4F84031BDF80630C4F844318123A7
:1039000084F8143102B010BD00C07E40F8B5044602
:1039100017460E461D46FFF7C0FEC4E90A67154A62
:10392000ED08256392F804316FF3000382F8043147
:103930000025236BBBB10DB12846F8BDD4E90A01BF
:10394000FFF7C0FFA36A21690833A362E36A083363
:10395000E362236B013B2363122218232046FFF707
:1039600077FE0546E5E7002DE6D12046FFF70EFE7F
:10397000E2E700BF00C07E400C4B5AB9C0F38F2075
:10398000C1F38F21C3F830018222C3F83811C3F884
:10399000DC21704740F47E404FF6FF7240F0FF009C
:1039A000C3F83821C3F830018122F0E700C07E401F
:1039B000F8B5164607460D46164CFFF76EFE6EB17B
:1039C000D4F8D83165F38713C4F8D83100253846C8
:1039D000FFF7DCFD002D18BF2846F8BD94F8043130
:1039E00015F0010F43F0010384F804310CBF4FF4CC
:1039F0008070002001223146FFF7BEFF3846FFF7F6
:103A0000B3FE94F8043166F30003054684F80431EC
:103A1000DDE700BF00C07E4073B5114E0192054640
:103A20000C46FFF73AFE96F8043143F0010386F89E
:103A30000431019900222046FFF79EFF2846FFF738
:103A400093FE96F804316FF30003044686F80431C0
:103A50002846FFF79BFD002C18BF204602B070BD22
:103A600000C07E405FF800F0B52100005106000064
:103A70004C08002010000C0000000000FF000000B7
:00000001FF
